:020000040800F2
:10000000A80E00203D020008BD290008D5280008E0
:10001000B9290008C5060008014F000800000000CB
:10002000000000000000000000000000D3290008CC
:100030002707000800000000D1290008D529000882
:10004000570200085702000857020008570200082C
:10005000570200085702000857020008570200081C
:10006000570200085702000857020008570200080C
:1000700057020008570200085702000857020008FC
:10008000570200085702000857020008000000004D
:1000900000000000000000000000000057020008FF
:1000A00057020008570200085702000857020008CC
:1000B00057020008570200085702000857020008BC
:1000C00057020008570200085702000857020008AC
:1000D00057020008570200085702000800000000FD
:1000E00057020008570200085702000800000000ED
:1000F000000000000000000000000000570200089F
:1001000000000000570200085702000857020008CC
:1001100000000000000000000000000000000000DF
:10012000570200085702000857020008570200084B
:10013000570200080000000000000000000000005E
:10014000000000000000000000000000C1290008BD
:10015000570200085702000857020008570200081B
:1001600057020008570200080000000000000000CD
:10017000000000000000000000000000000000007F
:10018000000000005702000800000000000000000E
:100190005702000800F002F800F040F80AA090E8CA
:1001A000000C82448344AAF10107DA4501D100F032
:1001B00035F8AFF2090EBAE80F0013F0010F18BFBF
:1001C000FB1A43F001031847C0500000E050000044
:1001D000103A24BF78C878C1FAD8520724BF30C873
:1001E00030C144BF04680C60704700000023002445
:1001F00000250026103A28BF78C1FBD8520728BF37
:1002000030C148BF0B6070471FB504F0A3FE9DE8E6
:10021000030000F079F91FBD10B510BD00F0D0F952
:100220001146FFF7F1FF04F089FE00F0EEF903B488
:10023000FFF7F2FF03BC00F01FFA000009488047F7
:1002400009480047FEE7FEE7FEE7FEE7FEE7FEE7B8
:10025000FEE7FEE7FEE7FEE704480549054A064BD0
:1002600070470000912A000895010008A8080020A6
:10027000A80E0020A80A0020A80A002070B5064693
:1002800000F026F9056806F10B0020F00704B442DF
:100290009CBF002070BD2B466A68BAB11068A042AE
:1002A00010D304F1080188423CBF5068586007D35E
:1002B0005168101941601168091B01605860146091
:1002C000101D70BD13465268002AE7D1214628460A
:1002D00000F006F90028DED170BD70B50446051F98
:1002E00000F0F6F80068002C14BF446870BD002CC4
:1002F00018BFAC423CBF20466468F8D301680A18B6
:10030000AA4218BF456003D12A680546114401601E
:1003100028684119A1421CBF6C6070BD61686960AA
:1003200021680844286070BD53EA020C00F069801F
:100330002DE9F04B4FF00006002B1FBFB3FA83F5F9
:1003400003FA05F424FA05F65E4012BF1643B2FA2A
:1003500082F502FA05F4C5F120051EBF22FA05FC5C
:1003600044EA0C04203556EA044C4FEA144418BF02
:10037000641C4FF000084FF00009904271EB030C31
:1003800039D3002919BFB1FA81F701FA07F6B0FA9B
:1003900080F700FA07F6C7F120071EBF20FA07FC16
:1003A00046EA0C062037B6FBF4FCA7EB0507103F26
:1003B00007F01F0BCBF120060CFA0BFB2CFA06F60C
:1003C00044BFB3460026202FA4BF5E464FF0000B6B
:1003D0005BEA060C08BF4FF0010B19EB0B09ABFBF6
:1003E000027C48EB0608C01B06FB02CC0BFB03CCCF
:1003F00071EB0C01C1E70B46024641464846BDE899
:10040000F08B13B54FF000004FF00001AFF3008008
:10041000BDE81C40704710B5203AC0F00B80B1E831
:100420001850203AA0E81850B1E81850A0E8185029
:10043000BFF4F5AF5FEA027C24BFB1E81850A0E832
:10044000185044BF18C918C0BDE810405FEA827C4C
:1004500024BF51F8043B40F8043B08BF7047D20763
:1004600028BF31F8023B48BF11F8012B28BF20F804
:10047000023B48BF00F8012B70474FF0000200B567
:10048000134694469646203922BFA0E80C50A0E8B7
:100490000C50B1F12001BFF4F7AF090728BFA0E865
:1004A0000C5048BF0CC05DF804EB890028BF40F831
:1004B000042B08BF704748BF20F8022B11F0804F73
:1004C00018BF00F8012B7047704770477047000055
:1004D00000487047500800207047704770477047C9
:1004E00038B504460A4600206946AFF3008000286C
:1004F00008BF38BD02460099204600F03FF80120B1
:1005000038BD012000F054B8F8B5AFF300800546BF
:1005100000200C46102000BF0646A819A0420DD9A5
:10052000324669460020AFF30080070008BF00F0A4
:100530003FF80098A04218BF0546C419FFF7C8FF4E
:1005400005600746F01D20F007004619284600F018
:100550000AF8B44208BFF8BDA21B31463868BDE8AE
:10056000F84000F00BB800210160C0E901107047AD
:100570001020704700487047480800200346406834
:100580008C46002818BF88423CBF03464068F8D319
:1005900018681844884207D00CF1030020F00700C7
:1005A000001D411A521A0146081D0A60FFF795BE48
:1005B00010B500F039F8BDE8104000F02FB87047D2
:1005C0007546FFF7D7FFAE4605006946534620F053
:1005D0000700854618B020B5FFF73EFEBDE8204075
:1005E0004FF000064FF000074FF000084FF0000BEF
:1005F00021F00701AC46ACE8C009ACE8C009ACE8A2
:10060000C009ACE8C0098D46704710B50446AFF389
:1006100000802046BDE81040FFF709BE002801D049
:1006200000F02AB87047000010B5012805D000215D
:1006300003A000F027F8012010BD09A1F8E7000091
:1006400053494752544D454D3A204F7574206F66BB
:100650002068656170206D656D6F72790000000023
:100660003A2048656170206D656D6F727920636F07
:10067000727275707465640001491820ABBEFEE7A4
:100680002600020070B505460C460A2000E06D1CED
:1006900000F011F835B128780028F8D102E0641C88
:1006A00000F009F814B120780028F8D1BDE87040B6
:1006B0000A20AFF3008008B569468DF800000320DA
:1006C000ABBE08BD00BFFEE70146002200BF05E04B
:1006D000002301F5617040F82230521C102AF7D334
:1006E000002204E0002301F58E708354521CB2F501
:1006F000007FF7D300200870487001208870002028
:10070000C1F8C40301230B7640238B7100234B7681
:1007100081F81C33012381F81D33002381F81F3336
:1007200081F81E337047704772B600BFFEE70000C5
:1007300070B5044600F0F4F806462546681C10B172
:1007400004480078054400BF00F0EAF8801BA84286
:10075000FAD370BD0C000020F8B502460B46002508
:10076000002400200021C7E0012606FA01F51E68DA
:1007700006EA0504AC4274D11E7906F00306012E88
:1007800004D01E7906F00306022E13D190684F00A4
:100790000326BE40B0434F00DE68BE403043906049
:1007A000506801268E40B0431E79C6F300168E4075
:1007B000304350601E7906F00306032E09D0D0683E
:1007C0004F000326BE40B0434F009E68BE403043FA
:1007D000D0601E7906F00306022E13D1CF0802F175
:1007E000200656F827004E07F70E0F26BE40B043EE
:1007F0004F07FF0E1E69BE403043CF0802F12006AE
:1008000046F8270010684F000326BE40B0431E790B
:1008100006F003064F00BE40304310605E6806F4E9
:100820004036002E67D000BF00260096344E366852
:1008300046F48046324F3E603E46366806F48046B7
:10084000009600BF00BF2F4E8F0856F827008E0776
:10085000370F0F26BE40B0432B4EB24202D10026C6
:1008600015E048E0294EB24201D101260FE0284EA2
:10087000B24201D102260AE0264EB24201D103263D
:1008800005E0254EB24201D1042600E007268F077D
:100890003F0FBE4030431B4E8F0846F827001F4EC7
:1008A0003068A0435E6806F4801606B120431B4EF4
:1008B0003060361D3068A0435E6806F4001606B14D
:1008C0002043164E361D3060144E361F3068A0434C
:1008D0005E6806F4003606B12043104E361F3060C5
:1008E000361F3068A0435E6806F4803606B12043A8
:1008F0000A4E083E3060491C1029FFF435AFF8BDA0
:100900004438024008380140000002400004024020
:1009100000080240000C024000100240083C014068
:1009200001480068704700000400002010B504462C
:10093000D4F8000303F0CAF810BD10B50446D4F88B
:10094000000303F0CEF810BD10B50446206803F094
:1009500089FE10BD10B50446206803F08AFE10BD64
:10096000024601EB410000EBC10302F1380000EB4D
:10097000830090F828007047024601EB410000EB2D
:10098000C10302F1380000EB83008069704770B545
:1009900004460D46002600BF94F8F802012801D154
:1009A000022070BD012084F8F80200BF29462068AB
:1009B00003F070FE00BF002084F8F80200BF30464C
:1009C000EFE72DE9FE4F04460D4616461F46DDE9CA
:1009D0000D9ADDF8308000BF94F8F802012802D1AA
:1009E0000220BDE8FE8F012084F8F80200BF00213C
:1009F00005EB450000EBC50204F1380000EB820076
:100A0000417105EB450000EBC50104F1380000F829
:100A1000217005EB450000EBC50104F1380000EB47
:100A20008100A0F808A005EB450000EBC50104F12A
:100A3000380000EB8100457005EB450000EBC50177
:100A400004F1380000EB810080F8079006F07F0188
:100A500005EB450000EBC50204F1380000EB820015
:100A6000817006F0800080280AD1012105EB450045
:100A700000EBC50204F1380000EB8200C17009E010
:100A8000002105EB450000EBC50204F1380000EB46
:100A90008200C17005EB450000EBC50104F1380090
:100AA00000EB810080F804808DE800073B46324669
:100AB0002946206803F0A7FE834600BF002084F883
:100AC000F80200BF58468CE770472DE9F05F0446F6
:100AD0000D4616461F46DDE90C9BDDE90A8A05EB4B
:100AE000450000EBC50104F1380000EB8100C67041
:100AF00005EB450000EBC50104F1380000EB810077
:100B0000C771B8F1000F14D1032105EB450000EBCC
:100B1000C50204F1380000EB8200817205EB45004C
:100B200000EBC50104F1380000EB810080F805B04E
:100B300009E0022105EB450000EBC50204F1380095
:100B400000EB8200817237B1012F76D0022F33D0B3
:100B5000032F73D173E0B8F1010F2CD106BBB9F1AB
:100B6000000F09D1012105EB450000EBC50204F19E
:100B7000380000EB8200417705EB450000EBC50132
:100B800004F1380000EB8100407F50B9002105EBF3
:100B9000450000EBC50204F1380000EB82008172D1
:100BA00009E0022105EB450000EBC50204F1380025
:100BB00000EB820081728FE0FEB905EB450000EB8F
:100BC000C50104F1380000EB8100407F50B90021DD
:100BD00005EB450000EBC50204F1380000EB820094
:100BE000817229E0022105EB450000EBC50204F10A
:100BF000380000EB820081721EE005EB450000EB3F
:100C0000C50104F1380000EB8100007F50B90021DC
:100C100005EB450000EBC50204F1380000EB820053
:100C2000817209E0022105EB450000EBC50204F1E9
:100C3000380000EB820081724EE041E04BE0FEB9EB
:100C400005EB450000EBC50104F1380000EB810025
:100C5000407F50B9002105EB450000EBC50204F1CF
:100C6000380000EB8200817229E0022105EB45008B
:100C700000EBC50204F1380000EB820081721EE037
:100C800005EB450000EBC50104F1380000EB8100E5
:100C9000007F50B9002105EB450000EBC50204F1CF
:100CA000380000EB8200817209E0022105EB45006B
:100CB00000EBC50204F1380000EB820081720BE00A
:100CC000002105EB450000EBC50204F1380000EB04
:100CD0008200817200E000BF00BF05EB450000EB21
:100CE000C50104F1380000EB8100C0F80CA005EB51
:100CF000450000EBC50104F1380000EB8100C0F8AD
:100D00001490002105EB450000EBC50204F138000A
:100D100000EB820080F8281005EB450000EBC502CF
:100D200004F1380000EB8200816105EB450000EB27
:100D3000C50104F1380000EB81004570002105EB8E
:100D4000450000EBC50204F1380000EB820080F89A
:100D50002910227C05EB450303EBC50C04F1380395
:100D600003EB8C01206803F037FEBDE8F09F2DE90E
:100D7000F04104462768B846206803F086FC012845
:100D80007DD1206803F0B0FF08B9BDE8F08120688C
:100D900003F0AAFF00F40010B0F5001F03D14FF4D8
:100DA000001021684861206803F09EFF00F4801065
:100DB000B0F5801F03D14FF480102168486120688E
:100DC00003F092FF00F08060B0F1806F03D14FF02C
:100DD000806021684861206803F086FF00F002000F
:100DE000022801D121684861206803F07DFF00F0EE
:100DF0000050B0F1005F16D14FF0005021684861FB
:100E0000D8F8400400F0010068B91021384603F01A
:100E1000FDFB384603F0D0FB0121206803F042FFC0
:100E20002046FFF78AFD206803F05EFF00F0807027
:100E3000B0F1807F02D1204601F0CBFB206803F0A7
:100E400053FF00F00800082805D1204600F0EEF816
:100E5000082021684861206803F046FFC0F30010B5
:100E600080B12068806920F01000216888612046E8
:100E700001F00AFC2068806940F0100000E030E0DA
:100E800021688861206803F02FFF00F00070B0F146
:100E9000007F26D1206803F097FD0646002519E063
:100EA00005F00F0101208840304090B108F5A060A6
:100EB00000EB4510006800F40040B0F5004F04D18D
:100EC000E9B2204600F044FD03E0E9B2204601F01B
:100ED0004DF86D1CA068A842E2D84FF00070216860
:100EE000486100BF51E730B58BB0044614B901200A
:100EF0000BB030BD256894F8F90228B9002084F8B9
:100F0000F802204600F02AF8032084F8F902E86B82
:100F100000F4807008B900212161206803F0F6FA1E
:100F2000282204F110016846FFF775FA94E80F00D3
:100F300003F07EFA0121206803F029FF282204F142
:100F400010016846FFF767FA94E80F0003F02CFEE3
:100F5000012084F8F9020020CAE7000010B586B02D
:100F60000446142101A8FFF788FA2068B0F1A04FC9
:100F700042D100BF002000902048006840F00100EE
:100F80001E4908600846006800F00100009000BF9C
:100F900000BF4FF4C0500190022002900020039047
:100FA000032004900A20059001A91548FFF7D4FBFF
:100FB00000BF1248001D006840F080000F49091D65
:100FC000086000BF002000900C481430006840F416
:100FD00080400A49143108600846006800F48040E7
:100FE000009000BF00BF00BF00221146432000F068
:100FF000DBF8432000F0C8F806B010BD30380240DE
:101000000000024010B50446D4F8000302F00EFEC2
:1010100010BD10B50446D4F8000302F00BFE10BD5D
:1010200010B50446206803F094FE10BD10B50446C8
:10103000D4F8000302F0A3FD10BD10B5044600BFB4
:1010400094F8F802012801D1022010BD012084F893
:10105000F80200BF0121206803F082FA206803F043
:10106000A4FA00BF002084F8F80200BF00BFECE73C
:1010700010B5044600BF94F8F802012801D10220FF
:1010800010BD012084F8F80200BF206803F0B3FE11
:1010900000BF002084F8F80200BF00BFF0E70000A6
:1010A000034800680349097808440149086070470B
:1010B000040000200C00002010B50D48006840F42A
:1010C00000700B4908600846006840F480600860C2
:1010D0000846006840F480700860032000F0A2F821
:1010E0000F2000F007F800F02BF8002010BD0000E2
:1010F000003C024070B504460E4800784FF47A7107
:10110000B1FBF0F00C490968B1FBF0F5284600F09E
:1011100005FC08B1012070BD102C07D20022214629
:10112000501E00F041F80548046001E00120F2E79C
:101130000020F0E70C000020100000200800002034
:1011400008B500BF002000900E48006840F48040C1
:101150000C4908600846006800F48040009000BF19
:1011600000BF00BF00200090081F006840F08050C2
:10117000091F08600846006800F08050009000BF1A
:1011800000BF08BD4438024001460846002809DB7C
:1011900000F01F0301229A4043099B0003F1E02362
:1011A000C3F8002100BF70472DE9F05F80460D466F
:1011B0001646002703F0A6FE074639462A46334660
:1011C00001F00700C0F1070ABAF1040F02D94FF08D
:1011D000040A01E0C0F1070AD14600F1040ABAF19D
:1011E000070F02D24FF0000A01E0A0F1030AD44633
:1011F0004FF0010A0AFA09FAAAF1010A0AEA020AF8
:101200000AFA0CFA4FF0010B0BFA0CFBABF1010BD5
:101210000BEA030B4AEA0B042146404603F07AFE30
:10122000BDE8F09F00BF00F00702064B19684FF6BB
:10123000FF031940044B0B4343EA0221014B1960A1
:1012400000BF70470CED00E00000FA0570B50446E1
:101250000D460CB9012070BD5848006800F0070029
:10126000A84209D255490D700846006800F00700F1
:10127000A84201D00120EEE7207800F00200022809
:101280001DD1207800F00400042805D14C480068E6
:1012900040F4E0504A490860207800F0080008282F
:1012A00005D14748006840F460404549086044481B
:1012B000006820F0F000A1680843414908602078E8
:1012C00000F00100A8B36068012807D13C48083845
:1012D0000068C0F34040B8B90120BCE7606802284C
:1012E00002D06068032807D1354808380068C0F389
:1012F000406048B90120AEE7314808380068C0F3C3
:10130000400008B90120A6E72D48006820F003003E
:10131000616808432A490860FFF702FB064609E0B6
:10132000FFF7FEFA801B41F28831884202D9032080
:1013300091E707E02248006800F00C006168B0EB1C
:10134000810FEDD11D48006800F00700A84209D9BF
:101350001A490D700846006800F00700A84201D045
:10136000012078E7207800F00400042807D1144811
:10137000006820F4E050E1680843114908602078D3
:1013800000F00800082808D10D48006820F46040EB
:10139000216940EAC1000A49086000F019F80849CB
:1013A0000968C1F30311074A515CC8400649086047
:1013B00006480068FFF79EFE00204CE7003C024014
:1013C000083802405E4F000810000020080000208E
:1013D0002DE9F047002400250026A1462548006895
:1013E00000F00C0020B1042805D008283AD105E00F
:1013F000DFF8849039E0DFF8849036E01D48001F64
:10140000006800F03F041B48001F006800F48000E3
:1014100078B11A481749091F0968C1F38811A0FB60
:1014200001700146224600233846FEF77DFF05463F
:101430000EE011480F49091F0968C1F38811A0FB8C
:1014400001700146224600233846FEF76DFF05462F
:101450000848001F0068C0F30140401C4600B5FB6F
:10146000F6F902E0DFF8109000BF00BF4846BDE883
:10147000F0870000083802400024F40040787D0125
:10148000F8B504460CB90120F8BD207800F0010041
:10149000002874D0F948006800F00C0004280DD032
:1014A000F648006800F00C00082813D1F348001F2C
:1014B000006800F48000B0F5800F0BD1EF480838C9
:1014C0000068C0F34040002859D06068002856D119
:1014D0000120D9E700BF6068B0F5803F08D1E74838
:1014E0000838006840F48030E449083908601EE09C
:1014F0006068B0F5A02F0DD1E0480838006840F4CE
:101500008020DE49083908600846006840F48030D1
:1015100008600CE0D9480838006820F48030D749CA
:10152000083908600846006820F48020086000BF81
:10153000606890B1FFF7F4F9054606E0FFF7F0F9AF
:10154000401B642801D903209EE7CC480838006876
:10155000C0F340400028F1D011E0FFF7E1F9054663
:1015600006E0FFF7DDF9401B642801D903208BE773
:10157000C24808380068C0F340400028F1D1207804
:1015800000F0020002285FD1BC48006800F00C00A7
:1015900058B1BA48006800F00C0008281CD1B748C0
:1015A000001F006800F48000B0B9B4480838006833
:1015B000C0F3400020B1E068012801D0012063E7BA
:1015C000AE480838006820F0F800216940EAC10000
:1015D000AA490839086037E0E06800B30120A8494B
:1015E0000860FFF79DF9054606E0FFF799F9401BF3
:1015F000022801D9032047E7A04808380068C0F353
:1016000040000028F1D09D480838006820F0F8001C
:10161000216940EAC10099490839086014E00020B6
:1016200097490860FFF77CF9054606E0FFF778F96F
:10163000401B022801D9032026E79048083800689B
:10164000C0F340000028F1D1207800F008000828FD
:101650002CD16069A8B101208A490860FFF760F9C0
:10166000054606E0FFF75CF9401B022801D903207C
:101670000AE782486C300068C0F340000028F1D0CF
:1016800014E000207F490860FFF74AF9054606E0AC
:10169000FFF746F9401B022801D90320F4E67748FA
:1016A0006C300068C0F340000028F1D1207800F0D1
:1016B0000400042870D1002770483830006800F01A
:1016C000805090B900BF002000906C48383000680E
:1016D00040F080506949383108600846006800F0E1
:1016E0008050009000BF00BF01276748006800F4E9
:1016F0008070B0B96448006840F480706249086046
:10170000FFF70EF9054606E0FFF70AF9401B02282D
:1017100001D90320B8E65C48006800F48070002816
:10172000F2D000BFA068012808D154486830006892
:1017300040F001005149683108601DE0A0680528AB
:101740000DD14E486830006840F004004B496831C4
:1017500008600846006840F0010008600CE0474857
:101760006830006820F0010044496831086008468C
:10177000006820F00400086000BFA068A8B1FFF76F
:10178000CFF8054609E0FFF7CBF8401B41F288315E
:10179000884202D9032077E626E03848683000689E
:1017A000C0F340000028EED013E0FFF7B9F805467B
:1017B00008E0FFF7B5F8401B41F28831884201D9B3
:1017C000032061E62D4868300068C0F3400000281F
:1017D000EFD1012F07D129483830006820F0805020
:1017E00026493831086000BFA069002845D0234849
:1017F000006800F00C0008285DD0A069022845D1DF
:1018000000201F490866FFF78BF8054606E0FFF742
:1018100087F8401B022801D9032035E6174808380D
:101820000068C0F340600028F1D1D4E90701084303
:10183000616A40EA81110122A06AC2EB500041EACC
:1018400000412C20005D41EA00600C49091F08603E
:1018500001200B490866FFF763F8054606E0FFF72D
:101860005FF8401B022801D903200DE60348083821
:101870000068C0F340600028F1D049E00838024019
:1018800000004742800E474200700040002021497E
:101890000866FFF745F8054606E0FFF741F8401BEC
:1018A000022801D90320EFE51B480068C0F340601F
:1018B0000028F2D12CE0A069012800D1E4E5164807
:1018C000001D0668A069012820D006F48001E069A7
:1018D00081421BD106F03F01206A814216D147F6B2
:1018E000C0703040616AB0EB811F0FD106F4403107
:1018F0000122A06AC2EB5000B1EB004F06D106F006
:1019000070612C20005DB1EB006F01D00120BBE5C0
:101910000020B9E5000047420038024070B5044697
:101920002546681EB0F1807F01D301200FE0681EBC
:101930004FF0E02148610F214FF0FF3003F0EAFA49
:1019400000204FF0E021886107200861002070BD71
:101950002DE9F04705468846D5F800904E464446A6
:1019600006F5A06000EB4410806800F00400042835
:1019700015D1042106F5A06000EB4410816006211A
:1019800004EB440000EBC40205F1380000EB8200D8
:1019900080F82910E1B2286802F07CFE8EE006F59E
:1019A000A06000EB4410806800F48070B0F5807F88
:1019B00016D14FF4807106F5A06000EB44108160F1
:1019C000072104EB440000EBC40205F1380000EBF2
:1019D000820080F82910E1B2286802F05BFE6DE019
:1019E00006F5A06000EB4410806800F0200020287D
:1019F00006D1202106F5A06000EB441081605DE077
:101A000006F5A06000EB4410806800F0080008288C
:101A100015D1082106F5A06000EB44108160052176
:101A200004EB440000EBC40205F1380000EB820037
:101A300080F82910E1B2286802F02CFE3EE006F59D
:101A4000A06000EB4410806800F48060B0F5806F07
:101A500016D14FF4806106F5A06000EB4410816060
:101A6000082104EB440000EBC40205F1380000EB50
:101A7000820080F82910E1B2286802F00BFE1DE018
:101A800006F5A06000EB4410806800F0800080281C
:101A900014D1802106F5A06000EB4410816006217E
:101AA00004EB440000EBC40205F1380000EB8200B7
:101AB00080F82910E1B2286802F0ECFD06F5A0607C
:101AC00000EB4410806800F40070B0F5007F0BD18B
:101AD000E1B2286802F0DEFD4FF4007106F5A06067
:101AE00000EB441081603FE206F5A06000EB44107B
:101AF000806800F0010000287ED02869C8B104EB9E
:101B0000440000EBC40105F1380000EB81000169DD
:101B100006F5A06000EB44100069C0F31200091A3A
:101B200004EB440000EBC40205F1380000EB820036
:101B30008161012104EB440000EBC40205F138008F
:101B400000EB820080F82910002104EB440000EB38
:101B5000C40205F1380000EB82004162012106F564
:101B6000A06000EB4410816004EB440000EBC40172
:101B700005F1380000EB8100C07950B104EB44005E
:101B800000EBC40105F1380000EB8100C0790228A8
:101B90000AD1E1B2286802F07DFD102106F5A060AF
:101BA00000EB441081603CE004EB440000EBC40116
:101BB00005F1380000EB8100C07903280AD004EB5E
:101BC000440000EBC40105F1380000EB8100C0794E
:101BD000012826D106F5A06000EB4410006840F013
:101BE000005106F5A06000EB44100160012104EBF8
:101BF000440000EBC40200E058E005F1380000EBBF
:101C0000820080F8281004EB440000EBC40305F1C7
:101C1000380000EB830090F82820E1B22846FEF758
:101C200053FF286901282CD104EB440000EBC401C8
:101C300005F1380000EB8100016904EB440000EB82
:101C4000C40205F1380000EB82000089B1FBF0F01E
:101C500000F00100002813D004EB440000EBC401A5
:101C600005F1380000EB8100007F80F0010104EBFA
:101C7000440000EBC40205F1380000EB820001775C
:101C800072E104EB440000EBC40105F1380000EB05
:101C90008100007F80F0010104EB440000EBC402EE
:101CA00005F1380000EB820001775DE106F5A060E8
:101CB00000EB4410806800F0020002287BD104EBA6
:101CC000440000EBC40105F1380000EB810090F8FE
:101CD000290001280BD1012104EB440000EBC402D0
:101CE00005F1380000EB820080F82810CEE004EB0C
:101CF000440000EBC40105F1380000EB810090F8CE
:101D0000290005280BD1052104EB440000EBC40297
:101D100005F1380000EB820080F82810B6E004EBF3
:101D2000440000EBC40105F1380000EB810090F89D
:101D3000290006280BD004EB440000EBC40105F198
:101D4000380000EB810090F8290008284ED104EB00
:101D5000440000EBC40105F1380000EB8100406A4B
:101D6000401C04EB440101EBC40205F1380101EB16
:101D70008201486204EB440000EBC40105F1380025
:101D800000EB8100406A022816D9002104EB4400D0
:101D900000EBC40205F1380000EB8200416204212F
:101DA00004EB440000EBC40205F1380000EB8200B4
:101DB00080F828106AE07EE0022104EB440000EB8A
:101DC000C40205F1380000EB820080F8281006F507
:101DD000A06000EB4410076827F0804747F00047F9
:101DE00006F5A06000EB441007604FE004EB4400F0
:101DF00000EBC40105F1380000EB810090F82900E8
:101E0000032819D1022104EB440000EBC40205F1C0
:101E1000380000EB820080F8281006F5A06000EB87
:101E20004410076827F0804747F0004706F5A06098
:101E300000EB4410076029E004EB440000EBC40110
:101E400005F1380000EB810090F8290007281DD12A
:101E500004EB440000EBC40105F1380000EB810005
:101E6000406A401C04EB440101EBC40205F1380157
:101E700001EB82014862042104EB440000EBC40240
:101E800005F1380000EB820080F82810022106F5E9
:101E9000A06000EB4410816004EB440000EBC4033D
:101EA00005F1380000EB830090F82820E1B22846C5
:101EB000FEF70AFE58E006F5A06000EB44108068CB
:101EC00000F0100010284FD104EB440000EBC401D7
:101ED00005F1380000EB8100C07903280ED1002104
:101EE00004EB440000EBC40205F1380000EB820073
:101EF0004162E1B2286802F0CDFB2FE004EB440020
:101F000000EBC40105F1380000EB8100C07950B14D
:101F100004EB440000EBC40105F1380000EB810044
:101F2000C07902281AD1002104EB440000EBC4025E
:101F300005F1380000EB82004162286970B9032185
:101F400004EB440000EBC40205F1380000EB820012
:101F500080F82910E1B2286802F09CFB102106F5F8
:101F6000A06000EB44108160BDE8F0872DE9F047E8
:101F700005460F46D5F800904E463C4606F5A06053
:101F800000EB4410806800F00400042815D10421FF
:101F900006F5A06000EB44108160062104EB4400CC
:101FA00000EBC40205F1380000EB820080F8291034
:101FB000E1B2286802F06EFB09E306F5A06000EBD1
:101FC0004410806800F0200020282AD1202106F546
:101FD000A06000EB4410816004EB440000EBC401FE
:101FE00005F1380000EB810040790128E4D100219F
:101FF00004EB440000EBC40205F1380000EB820062
:102000004171022104EB440000EBC40205F13800E9
:1020100000EB820080F82810E1B2286802F03AFB59
:10202000D5E206F5A06000EB4410806800F4007073
:10203000B0F5007F0BD14FF4007106F5A06000EB06
:1020400044108160E1B2286802F024FBBFE206F58B
:10205000A06000EB4410806800F00100B8B30021DC
:1020600004EB440000EBC40205F1380000EB8200F1
:10207000416206F5A06000EB4410806800F040006B
:1020800040280FD1012104EB440000EBC40205F10C
:10209000380000EB82004171402106F5A06000EBA2
:1020A00044108160012106F5A06000EB44108160BE
:1020B00004EB440000EBC40205F1380000EB8200A1
:1020C00080F82910E1B2286802F0E4FA7FE2FFE725
:1020D00006F5A06000EB4410806800F04000402846
:1020E00029D1042104EB440000EBC40205F13800BF
:1020F00000EB820080F82910012104EB440000EB82
:10210000C40205F1380000EB82004171002104EBAC
:10211000440000EBC40205F1380000EB820041628C
:10212000E1B2286802F0B6FA402106F5A06000EBA3
:10213000441081604BE206F5A06000EB441080681B
:1021400000F00800082815D1082106F5A06000EB72
:1021500044108160052104EB440000EBC40205F14A
:10216000380000EB820080F82910E1B2286802F004
:1021700091FA2CE206F5A06000EB4410806800F0B4
:10218000100010283DD1002104EB440000EBC402F4
:1021900005F1380000EB82004162032104EB4400AA
:1021A00000EBC40205F1380000EB820080F8291032
:1021B00004EB440000EBC40105F1380000EB8100A2
:1021C000407998B904EB440000EBC40105F13800F4
:1021D00000EB8100007948B9012104EB440000EBD9
:1021E000C40205F1380000EB82004171E1B22868B9
:1021F00002F050FA102106F5A06000EB4410816057
:10220000E5E106F5A06000EB4410806800F0800076
:10221000802865D1286978B9062104EB440000EBD9
:10222000C40205F1380000EB820080F82910E1B209
:10223000286802F02FFA4CE004EB440000EBC401E4
:1022400005F1380000EB8100406A401C04EB4401BA
:1022500001EBC40205F1380101EB8201486204EB95
:10226000440000EBC40105F1380000EB8100406A36
:10227000022823D9002104EB440000EBC40205F13D
:10228000380000EB82004162042104EB440000EBC3
:10229000C40205F1380000EB820080F8281004EB3E
:1022A000440000EBC40305F1380000EB830090F814
:1022B0002820E1B22846FEF707FC0AE0022104EBE1
:1022C000440000EBC40205F1380000EB820080F806
:1022D0002810802106F5A06000EB4410816076E1B3
:1022E00006F5A06000EB4410806800F48060B0F553
:1022F000806F16D1082104EB440000EBC40205F105
:10230000380000EB820080F82910E1B2286802F062
:10231000C1F94FF4806106F5A06000EB44108160C4
:1023200055E106F5A06000EB4410806800F0020063
:102330000228D4D104EB440000EBC40105F13800BD
:1023400000EB810090F8290001287DD1012104EBE8
:10235000440000EBC40205F1380000EB820080F875
:10236000281004EB440000EBC40105F1380000EB39
:102370008100C07902280AD004EB440000EBC401BC
:1023800005F1380000EB8100C07903285AD1286993
:1023900098B904EB440000EBC40105F1380000EBF0
:1023A0008100407F80F0010104EB440000EBC40297
:1023B00005F1380000EB820041772869012841D1FE
:1023C00004EB440000EBC40105F1380000EB810090
:1023D0004069002836D004EB440000EBC40105F14D
:1023E000380000EB8100416904EB440000EBC402BB
:1023F00005F1380000EB820000890844401E04EB20
:10240000440101EBC40205F1380101EB82010989A5
:10241000B0FBF1FA0AF00100002813D004EB4400ED
:1024200000EBC40105F1380000EB8100407F80F033
:10243000010104EB440000EBC40205F1380000EB9D
:1024400082004177AFE0FFE704EB440000EBC401FA
:1024500005F1380000EB810090F8290003280BD12A
:10246000022104EB440000EBC40205F1380000EB4C
:10247000820080F8281096E004EB440000EBC401D1
:1024800005F1380000EB810090F8290004280BD1F9
:10249000022104EB440000EBC40205F1380000EB1C
:1024A000820080F828107EE004EB440000EBC401B9
:1024B00005F1380000EB810090F8290005280BD1C8
:1024C000052104EB440000EBC40205F1380000EBE9
:1024D000820080F8281066E004EB440000EBC401A1
:1024E00005F1380000EB810090F8290006280BD098
:1024F00004EB440000EBC40105F1380000EB81005F
:1025000090F8290008284ED104EB440000EBC401E8
:1025100005F1380000EB8100406A401C04EB4401E7
:1025200001EBC40205F1380101EB8201486204EBC2
:10253000440000EBC40105F1380000EB8100406A63
:10254000022815D9002104EB440000EBC40205F178
:10255000380000EB82004162042104EB440000EBF0
:10256000C40205F1380000EB820080F828101AE060
:10257000022104EB440000EBC40205F1380000EB3B
:10258000820080F8281006F5A06000EB4410D0F817
:10259000008028F0804848F0004806F5A06000EB75
:1025A0004410C0F80080022106F5A06000EB441042
:1025B000816004EB440000EBC40305F1380000EB3C
:1025C000830090F82820E1B22846FEF77DFABDE8A6
:1025D000F0877CB5044626683546D5F8400401905E
:1025E000D5F840040090009820F02E00009001984B
:1025F00000F0020002280AD1019800F0010010B199
:102600002046FEF793F9009840F0020000900198F0
:1026100000F0080008282AD1009840F00800009037
:10262000019800F0040004281ED1A06902280FD1EF
:10263000019800F4C020B0F5802F04D10221206859
:1026400002F030FB0CE00121206802F02BFB07E0D8
:10265000E068012804D14EF6602140F20440415167
:102660002046FEF7D6FC02E02046FEF7CBFC0198A0
:1026700000F02000202803D1009840F020000090B6
:102680000098C5F840047CBD2DE9F84F0546D5F803
:1026900000B05F462868D0F8208008F00F04C8F327
:1026A00043400090C8F30A160098022806D0032879
:1026B0007DD005287CD007287BD1A3E0002E79D0DF
:1026C00004EB440000EBC40105F1380000EB81008D
:1026D000C06800286ED004EB440000EBC40105F193
:1026E000380000EB81008069811904EB440000EBA5
:1026F000C40205F1380000EB82004069814272D8C3
:10270000B2B204EB440303EBC40C05F1380303EB52
:102710008C03D968286802F0ECFA04EB440000EB63
:10272000C40105F1380000EB8100C068811904EB99
:10273000440000EBC40205F1380000EB8200C160E8
:1027400004EB440000EBC40105F1380000EB81000C
:102750008069811904EB440000EBC40205F13800E4
:1027600000EB8200816107F5A06000EB4410006976
:10277000C0F3C94A04EB440000EBC40105F1380082
:1027800000EB81000089B04238D1BAF1000F35D09A
:1027900007F5A06000EB4410D0F8009029F08049C4
:1027A00049F0004907F5A06000EB441003E028E081
:1027B00025E025E022E0C0F8009004EB440000EBA7
:1027C000C40105F1380000EB8100007F80F00101B9
:1027D00004EB440000EBC40205F1380000EB82007A
:1027E00001770BE0FFE7042104EB440000EBC40297
:1027F00005F1380000EB820080F8281003E002E0C9
:1028000000BF00BF00BF00BFBDE8F88F2DE9F04159
:1028100002460B46002100241668177A507A68B1E8
:10282000507A984202DC0020BDE8F081506800FB3D
:1028300003F53D4406EBD50605F00707002405E047
:1028400030784FEAC40C00FA0CF1641C107900F0E7
:10285000070018B15068C008401C01E05068C0086B
:10286000A042EDD821FA07F092F804804FF0010C55
:102870000CFA08FCACF1010C00EA0C01D0688842AB
:1028800002D81069884201D20020CDE7907AC8B101
:102890001079401E4FF0010C0CFA00F0084088B18E
:1028A00092F80480012000FA08F0401EC04340EA7C
:1028B000010CD069012801D16046B5E7D06900FB61
:1028C0000CF0B1E7D069012801D10846ACE7D06926
:1028D0004843A9E700BFFEE708B500BF002000900D
:1028E0000E48006840F080000C4908600846006807
:1028F00000F08000009000BF00BF00BF00200090EB
:102900000846006840F0010008600846006800F0D2
:102910000100009000BF00BF08BD00003038024039
:1029200010B501220A490B4801F084F808B1FDF7FF
:10293000FBFE0949074801F0EAFC08B1FDF7F4FE87
:10294000044801F04DFD08B1FDF7EEFE10BD00009A
:10295000F94300085C0000201400002010B5124864
:1029600001F064FB104800F0E7FA02281AD10E4883
:1029700000F00AFB0446A4B1204600F0C5FA0B495A
:1029800008700846007860B1084600780849094A8E
:102990001278885407480078401C0649087000BF28
:1029A00000BF00BF10BD00005C000020010000203F
:1029B000340400200200002000BFFEE700BFFEE755
:1029C00010B50248FEF7D3F910BD00003405002011
:1029D0007047704710B5FEF763FB10BD00B593B0AC
:1029E000302107A8FDF749FD142102A8FDF745FD98
:1029F00000BF002001902448006840F08050224928
:102A000008600846006800F08050019000BF00BFD9
:102A100000BF002001901D48006820F4404040F4B1
:102A200000401A4908600846006800F440400190E0
:102A300000BF00BF012007900004089002200D9005
:102A400041050E910F210F919021109104211191B8
:102A50000521129107A8FEF713FD08B1FDF764FEEA
:102A60000F20029002200390002004904FF4805029
:102A7000059000200690012102A8FEF7E7FB08B1AF
:102A8000FDF752FE13B000BD403802400070004018
:102A90000348006840F47000014908607047000076
:102AA00088ED00E070B506460D46304600F0FAF8B5
:102AB00004464FF6FF70844207D045F4004104F00D
:102AC0000F0206F5617040F82210E0B270BD70B5DB
:102AD00004460D462946204600F0E5FF002070BD63
:102AE00070B504460D46A078012807D10221217453
:102AF0000121617400216182A582E18200221146D8
:102B0000204600F016F870BD2DE9FF4107460C463F
:102B100015461E460020012103460A468DE8320074
:102B200003903146384601F0DCF8002004B0BDE8DF
:102B3000F0812DE9F04104460E4617460125A078A4
:102B4000012802D0022819D107E0A660A78101213F
:102B500021760220A070012511E0204600F011FD31
:102B600005460DB1032D04D10120A070002121766E
:102B700003E0022D01D10120A07000E000BF00BFE2
:102B80002846BDE8F0812DE9FF4104460D46174671
:102B90001E46DDF8288094F81D0308B14FF00008A8
:102BA000012000231A4631468DE8A101204601F09C
:102BB00098F8002004B0BDE8F0817FB506460C46C9
:102BC000154600200821CDE9000403460246CDE960
:102BD00002102946304601F084F8002004B070BD90
:102BE00010B504462046FDF7A3FD10BDF0B506461E
:102BF0000C4615460022002106F54E771AE002EB3E
:102C0000820000EBC20C07F10A0000EB4C0148798E
:102C1000A04201D0FF2C0BD18879A84201D0FF2D12
:102C200006D1C879984201D0FF2B01D11046F0BDE2
:102C3000501CC2B2022AE2D3FF20F8E70246102954
:102C400009D202F5617030F82100C0F30E0302F5DD
:102C5000617040F82130002070472DE9F0410446B2
:102C60000E4615461F46DDF81880A078012812D1BF
:102C700046F08001217406216174658205F47F406D
:102C8000B0F5407F03D140F20941A18201E000216B
:102C9000A182A4F81680424639462046FFF749FF34
:102CA000BDE8F0810246002100BF0AE002F5617034
:102CB00030F8210000F4004008B908467047481C6D
:102CC000C1B21029F2D34FF6FF70F7E710B50246F4
:102CD0000B88147823440B801378981810BDF8B52E
:102CE00007460C4607F11C0633464FF400720021DC
:102CF00038460094FFF7B1FF05462DB9224631460C
:102D0000384601F023F805462846F8BDF8B50446D4
:102D10000D4604F58E734FF4807200212046009515
:102D2000FFF79BFF064636B92A4604F58E7104F27A
:102D3000263001F0B5F83046F8BD2DE9F8430446D9
:102D40000E4617461D4646F4407204F58E73002168
:102D500020460095FFF781FF8046B8F1000F05D1AE
:102D60002A46394604F58E7001F045F94046BDE823
:102D7000F8830146002031B1012906D0022906D08E
:102D8000032908D105E0002007E0022005E001202A
:102D900003E0022001E0022000BF00BF70472DE9E0
:102DA000F041064601270125D6F87C03C469607905
:102DB000062841D2DFE800F003410D041C2B00BFC0
:102DC00006F11C0104F1260000F0F8FA02206071FF
:102DD00034E0E18D304600F0C8F8054615B904200E
:102DE000607104E0032D02D100BF00BF022725E07F
:102DF00000221146304600F09AFB054615B9052021
:102E0000607103E0032D01D10520607116E00021FF
:102E1000304600F0A0FB054645B901206071022153
:102E20003046D6F8D4239047002704E0032D02D182
:102E300000BF00BF022701E000BF00BF00BF38464F
:102E4000BDE8F081704700238380C38083720281D4
:102E50000160704770B503460C462546987AF0B974
:102E600001209872002118E0D8889E88B0420ED0C8
:102E7000DE881868805D05F8010BD888401CD88072
:102E8000D8881E89B04206D10020D88003E00020F7
:102E90009872084670BD481C81B29142E4DB002064
:102EA00098721046F6E7F0B503460C462546987A28
:102EB00028BB0120987200211FE09888401CDE8802
:102EC000B04206D09888401C1E89B04205D1D888EF
:102ED00018B9002098720846F0BD15F8010B9F88BC
:102EE0001E68F0559888401C988098881E89B042CA
:102EF00001D100209880481C81B29142DDDB002086
:102F000098721046E8E7000001468A780AB98A7983
:102F10002AB14A7A054B9A5C054B985C04E04A7AE0
:102F2000024B9A5C034B985C704700009C51000870
:102F30001A5100089850000810B50146FF200B7880
:102F40000B2B11D191F8243303EB830404EBC3045E
:102F500001F2423303EB4403DA79012A01D1022062
:102F600002E0022A00D1012010BDF8B504460D464A
:102F700004F58E734FF40852012120460095FFF7A7
:102F80006CFE06463046F8BD10B50446204600F0FB
:102F900049F908B9014810BD0020FCE738080020B5
:102FA0002DE9F04104460D4616461F46DDF818800F
:102FB000A12121740121617446EA05216182002169
:102FC000A182A4F81680424639462046FFF7B1FD9B
:102FD000BDE8F08170B50546D5F87C03C46960781A
:102FE00048B161782846FFF772FD61782846FFF7FF
:102FF00025FE00206070207848B121782846FFF730
:1030000066FD21782846FFF719FE00202070D5F8CC
:103010007C03C06940B1D5F87C13C869FDF75DF940
:103020000020D5F87C13C861002070BD2DE9FE4357
:1030300005460027D5F87C030179FF2301222846A5
:10304000FFF7D4FD0646FF2E01D0022E04D300BFA9
:1030500000BF0220BDE8FE833146284601F070F92A
:103060008046B8F1000F01D00220F3E73420FDF7CD
:1030700005F9D5F87C13C861D5F87C03C4691CB97F
:1030800000BF00BF0220E5E734212046FDF7F5F937
:103090000720A07006EB860000EBC60105F2423067
:1030A00000EB4100C079012804D100BF00BF5B489C
:1030B000206313E006EB860000EBC60105F2423008
:1030C00000EB4100C079022804D100BF00BF544882
:1030D000206303E000BF00BF0220BBE70020A07018
:1030E000607106EB860000EBC60105F2423000EB92
:1030F0004100007BA07606EB860000EBC60105F2DE
:10310000423000EB4100C089208306EB860000EBD3
:10311000C60105F2423000EB4100007CA083A08B89
:103120000A2801D20A20A08306EB860000EBC60124
:1031300005F2423000EB41000079022809D806EB85
:10314000860000EBC60105F2423000EB4100007939
:1031500000E00220814600275BE006EB860000EBE2
:10316000C60105F2423000EB41000A3000EBC70017
:10317000807800F0800028B306EB860000EBC601E3
:1031800005F2423000EB41000A3000EBC7008078C6
:10319000207121792846FFF785FC6070208B03227F
:1031A00095F81D13CDE90012029095F81C33227991
:1031B0006178284600F0B5FD61780022284600F0CD
:1031C0004FFD24E006EB860000EBC60105F242301D
:1031D00000EB41000A3000EBC7008078E070E17836
:1031E0002846FFF75FFC2070208B032295F81D1303
:1031F000CDE90012029095F81C33E2782178284638
:1032000000F08FFD21780022284600F029FD781C6F
:10321000C7B24F45A1DB00201CE70000F9320008CF
:103220005D33000870B50646D6F87C03C569288B67
:1032300008B9022070BD2A8B244905F10800FFF768
:1032400009FE298B88423FD100212148FFF7DEFA91
:103250002049487000212048FFF7D8FA1D4988709E
:1032600000211E48FFF7D2FA1A49C87000211C48F5
:10327000FFF7CCFA1749087100211A48FFF7C6FA80
:103280001449487100211848FFF7C0FA11498871A4
:1032900000211648FFF7BAFA0E49C87100211448F8
:1032A000FFF7B4FA0B490872002409E021461148DF
:1032B000FFF7ACFAC1B2074809300155601CC4B22F
:1032C000062CF3D30020B5E70220B3E73C00002032
:1032D000784F000838080020984F0008B84F0008C1
:1032E000D84F0008F84F0008185000083850000860
:1032F000585000087850000870B50646D6F87C0390
:10330000C5690020124948708870C87008714871FA
:103310008871C8710872002407E000200D4941F847
:1033200024000D4941F82400641C022CF5D3288B9D
:10333000082801D90820288307486861502206F52B
:103340008E7105F10800FFF77EFD002070BD0000C2
:10335000380800203C0000203400002070B50646EC
:10336000D6F87C03C5690020114908704870887040
:1033700000210F48C1700171002407E000200D49B1
:1033800041F824000C4941F82400641C022CF5D3B8
:10339000288B082801D90820288307486861502213
:1033A00006F58E7105F10800FFF74DFD002070BD98
:1033B000440000204C00002054000020F8B50546D1
:1033C0000E463446B178F07841EA0027092F24D917
:1033D000092000901CE069462046FFF777FC044670
:1033E0006078212814D12078287060786870A178DE
:1033F000E07841EA0020688020792871607968715E
:10340000A079A871E179207A41EA0020288103E0BF
:10341000BDF80000B842DEDB00BFF8BDF8B50546D8
:103420000026D5F87C03C469A078072869D2DFE8B4
:1034300000F0040A68682F273E002846216B884761
:103440000120A0705EE0207E00900022012128462D
:103450006369FFF7A5FD064616B90520A0700EE0CA
:10346000012E03D10120A070002608E0032E03D115
:103470000520A070002602E00720A070022641E08F
:10348000D5F8C40300F0010008B10420A07039E0B1
:103490006378227E2846616900F0F0FA0620A07069
:1034A000D5F8C4032062002084F824002AE0617863
:1034B000284600F05BFB012815D16178284600F012
:1034C00034FB074694F82400D0B9CFB1228B04F125
:1034D00008006169FFF7E7FC012084F82400284612
:1034E000FFF7B0FC0CE06178284600F03FFB0528B0
:1034F00006D1A17E2846FFF7F3FA08B90420A07090
:1035000000E000BF00BF3046F8BD0246D2F87C03A1
:10351000C1698878062808D1D2F8C4030B6AC01A9A
:103520008B8B984201D3042088700020704770B5BF
:1035300004460D461646212121740A21617446EA8B
:10354000052161820021A182E182002211462046EC
:10355000FFF7EFFA70BD70B504460D4621212174C6
:103560000B21617415B10021618201E001216182AA
:103570000021A182E182002211462046FFF7D9FAFC
:1035800070BDF8B5044601270025207E0C286FD2B7
:10359000DFE800F0DD060F323E505E7A869AA8BD65
:1035A000627904F110012046FFF707FB0221217622
:1035B000CEE06179204600F0D9FA0546012D14D1FC
:1035C000207C00F08006E08A38B1802E02D10321F1
:1035D000217610E0052121760DE0802E02D109210F
:1035E000217608E00721217605E0042D01D0022D87
:1035F00001D10B212176ABE0D4F8C403E08123791B
:10360000A2892046A168FFF77FFA042121769FE076
:103610002179204600F0AAFA0546012D01D10921A1
:103620002176052D01D1032703E0042D01D10B21C3
:1036300021768DE0012000906379A2892046A1685F
:10364000FFF7A1FAD4F8C403E081062121767FE0D8
:103650006179204600F08AFA0546012D02D1072142
:10366000217610E0052D04D10C21217603270AE0F4
:103670006DE0022D02D10521217604E0042D02D156
:103680000B212176022763E0237900221146204690
:10369000FFF73AFAD4F8C403E0810821217657E015
:1036A0002179204600F062FA0546012D03D10D2153
:1036B0002176002707E0042D02D10B21217602E0BC
:1036C000052D00D1032743E00120009063790022FB
:1036D00011462046FFF757FAD4F8C403E0810A21C7
:1036E000217635E06179204600F040FA0546012D4B
:1036F00003D100270D21217608E0022D02D10921F6
:10370000217603E0042D01D10B21217620E0607E9B
:10371000401CC1B26176022904D801212176012022
:10372000A07013E006212046D4F8D423904700214E
:10373000617600BF00BF61792046FFF77FFA2179EB
:103740002046FFF77BFA00202070022700E000BF30
:1037500000BF3846F8BDFEB5044601260125607855
:10376000082874D2DFE800F0044874ABD2FDEFEE15
:1037700008212046FFF7CAFA054605BB94F82D1329
:10378000A17101206070A079002294F81D13CDE989
:103790000012029094F81C3321798022204600F018
:1037A000C0FAA079002294F81D13CDE9001202900E
:1037B00094F81C336179204600F0B3FA1BE0032D26
:1037C00019D100BF00BF94F81E03401C84F81E03EB
:1037D00094F81E03032804D900BF00BF0D202070F9
:1037E00009E061792046FFF729FA21792046FFF7A1
:1037F00025FA002020700CE112212046FFF786FAFE
:10380000054635B900BF00BF00BF00BF0220607091
:103810001CE0032D1AD100BF00BF94F81E03401C0A
:1038200084F81E0394F81E03032804D900BF00BFC8
:103830000D2020700AE061792046FFF7FFF9217919
:103840002046FFF7FBF9002060702070E1E0DFE028
:103850000121204600F088FD05462DBB0220FFF720
:10386000BFF9012184F81C1300BF00BF0320607062
:10387000A079002294F81D13CDE90012029094F86B
:103880001C3321798022204600F04BFAA0790022D7
:1038900094F81D13CDE90012029094F81C3361795D
:1038A000204600F03EFA09E0032D07D100BF00BF1B
:1038B00000BF00BF0D20207000206070A9E009212A
:1038C0002046FFF70CFA054615B9042060701CE08D
:1038D000032D1AD100BF00BF94F81E03401C84F8CA
:1038E0001E0394F81E03032804D900BF00BF0D2057
:1038F00020700AE061792046FFF7A0F9217920467F
:10390000FFF79CF900206070207082E0B4F83A1351
:103910002046FFF7E4F9054615B9052060701FE061
:10392000032D1DD100BF00BF94F81E03401C84F876
:103930001E0394F81E03032807D900BF00BF0D2003
:1039400020700DE049E02AE00BE061792046FFF7A6
:1039500075F921792046FFF771F900206070207019
:1039600057E094F83403A8B194F83413FF2304F516
:103970008E722046FFF7E1F9054625B900BF00BF6A
:10398000062060700AE0032D08D100BF00BF0620AA
:10399000607003E000BF00BF0620607039E094F85B
:1039A0003503A8B194F83513FF2304F58E72204631
:1039B000FFF7C3F9054625B900BF00BF07206070B7
:1039C0000AE0032D08D100BF00BF0720607003E0AC
:1039D00000BF00BF072060701BE094F8360398B169
:1039E00094F83613FF2304F58E722046FFF7A5F9ED
:1039F00005461DB900BF00BF002608E0032D06D113
:103A000000BF00BF002602E000BF00BF002600E0AC
:103A100000BF00BF3046FEBD10B5044620780B281D
:103A200007D1D4F87C0320B1D4F87C038169204607
:103A3000884710BD70B504460D4616461CB900BF38
:103A400000BF022070BD84F8CC630020C4F87C0362
:103A5000C4F880032046FCF737FE002184F82313C6
:103A600084F8201384F8211384F822130DB1C4F8CC
:103A7000D453204600F08EF80020E3E72DE9FF4103
:103A800007460C4615461E460020012103230A4620
:103A90008DE8320003903146384600F022F90020CC
:103AA00004B0BDE8F0812DE9F04104460D46002642
:103AB00000272946D4F8D003FCF769FF06463046B4
:103AC000FFF757F907463846BDE8F0810146012265
:103AD00081F82023002281F8212381F8222300206D
:103AE000704710B50446012184F82113002184F8A1
:103AF000201384F82313204600F0E4F821792046AF
:103B0000FFF79CF861792046FFF798F8002010BD78
:103B100070B504460D4694F8CC03012800D100BFCF
:103B2000C820FCF705FE002070BD70B504460D46A8
:103B30002946D4F8D003FCF71FFF70BD70B50446CA
:103B40000125D4F8D003FCF705FF20B1012804D0EB
:103B5000022806D103E0002505E0012503E0022547
:103B600001E0012500BF00BF284670BD70B50446C6
:103B70000D462946D4F8D003FCF7F2FE70BD10B50F
:103B80000446D4F8C403401CC4F8C4032046FFF71D
:103B900043FF10BD70B5044694F8CC03012820D132
:103BA0001148C0F80043C4F8D0034FF0A0400E49BC
:103BB000086008210C4881600121C1600021016179
:103BC000022181610021C161FDF78DF908B1FCF787
:103BD000ABFD0548FCF7B8FE05462946204600F037
:103BE0003CF8002070BD0000340500202DE9FF5F87
:103BF00004460D4616461F46DDE90F9ADDF838806B
:103C00004FF0000B002003908DE800073B46324642
:103C10002946D4F8D003FCF7D4FE83465846FFF774
:103C2000A8F80390039804B0BDE8F09F002280F844
:103C300023237047012280F82323704770B5044680
:103C400000250026D4F8D003FDF7EAF905462846FA
:103C5000FFF78FF80646304670BDC0F8C4137047B2
:103C600030B50446D4F8D03301EB410000EBC10578
:103C700003F1380000EB8500C07848B101EB41004A
:103C800000EBC10503F1380000EB8500027708E086
:103C900001EB410000EBC10503F1380000EB8500AA
:103CA0004277002030BD70B5044600250026D4F8C8
:103CB000D003FDF7C2F905462846FFF75AF8064635
:103CC000304670BD70B5044600250026D4F8D003F8
:103CD000FDF7CEF905462846FFF74BF80646304675
:103CE00070BD2DE9F04F87B004460D4616461F46BD
:103CF000DDE912ABDDE910890020069005908DE822
:103D0000000F3B4632462946D4F8D003FCF7DDFECF
:103D100006900698FFF72DF80590059807B0BDE8C6
:103D2000F08F2DE9FE4F04460D4616461F46DDE98D
:103D30000D9ADDF830803B463246294620468DE814
:103D40000007FFF753FF0020BDE8FE8F2DE9F74F76
:103D500082B083460E460BF54E7400200190354626
:103D60008046814600BF3078207070786070B178EE
:103D7000F07841EA0020FF2804DCB178F07841EACD
:103D8000002001E04FF480706080307920717079FC
:103D90006071B079A071F079E071307A207220788A
:103DA000092801D0092020700498092876D9092013
:103DB000009000275FE069462846FEF787FF05462A
:103DC0006878042857D12878092801D0092028705C
:103DD00008EB880000EBC80104F10A0000EB410782
:103DE0002946384600F0F4F84FF00009CA462FE0A3
:103DF00069462846FEF76AFF05466878052827D1F8
:103E0000787901280AD1B879022807D1F87950B910
:103E10002878092807D00920287004E02878072886
:103E200001D00720287008EB880000EBC80104F1DE
:103E30000A0000EB41000A3000EBC90A2A4651464D
:103E4000584600F06DF8019009F1010000F0FF09FB
:103E50003879484504DD6088BDF800108842C7DC29
:103E60003879484503DD032005B0BDE8F08F08F13F
:103E7000010000F0FF08B8F1020F04D26088BDF81D
:103E80000010884297DC2079022802DA207901E0CC
:103E900004E00220404501DD0320E5E70198E3E767
:103EA00010B50B7803704B7843708C78CB7844EA6C
:103EB000032343800B7903714B7943718B798371B1
:103EC000CB79C371C379082B06D0102B05D0202BDA
:103ED00004D0402B06D102E000BF00BF00BFC37971
:103EE000C37102E04023C37100BF00BF082A16D986
:103EF0000C7A4B7A44EA032303818C7ACB7A44EA26
:103F0000032343810C7B4B7B44EA032383818B7B1C
:103F10008373CB7BC3730B7C03744B7C437410BDE6
:103F200030B50346002014780C7054784C709478A7
:103F30008C70D478CC701579547945EA04248C803F
:103F400094798C718C880CB9032018E08C886FF3FD
:103F50000A048C801579547945EA0424C4F30A04D0
:103F6000B4F5007F06DA1579547945EA0424C4F3E0
:103F70000A0401E04FF400748D882C438C8093F880
:103F80001D4384B9CC7804F00304012C04D0CC7810
:103F900004F00304032C1AD18C7914B18C79102C01
:103FA00015D9032013E0CC7804F00304012C06D1CA
:103FB0008C7914B18C79102C09D9032007E0CC78C6
:103FC00004F00304032C02D18C7904B9032030BD22
:103FD0000A7802704A7842708A788270CA78C27011
:103FE0000A7902714A7942718A798271CA79C271F9
:103FF0000A7A0272704730B513464578032D14D102
:104000000578AD1E9D4202D80578AD1E00E01D4624
:10401000ACB2801C002204E0855C0D70491C951C2C
:10402000AAB2A242F8DB00250D7030BD7FB5044670
:1040300002200390002594F82103012801D10320D8
:10404000207020780E287DD2DFE800F0071B46FDA7
:104050007C80FC98A3AECCFB7CFA94F8200378B16A
:1040600000BF00BF01202070C820FEF7B9FD204628
:10407000FFF7E4FD002184F81C130020C4F8C803F6
:1040800041E194F82303012807D100BF00BF0021BC
:1040900084F81F13022020701DE0D4F8C803B0F587
:1040A0007A7F10D994F81F03401C84F81F0394F8FA
:1040B0001F03032804D900BF00BF0D2020700AE0B1
:1040C0000020207007E0D4F8C8030A30C4F8C80301
:1040D0000A20FEF785FD16E1D4F8D40320B10421AF
:1040E0002046D4F8D42390476420FEF779FD20467B
:1040F000FFF724FD84F81D030520207000212046D1
:10410000FEF7D0FC607180212046FEF7CBFC2071C9
:10411000A079002294F81D13CDE90012029094F8C2
:104120001C33217980222046FFF7FBFDA079002275
:1041300094F81D13CDE90012029094F81C336179B4
:10414000204600E0DDE0FFF7ECFDDCE02046FFF775
:1041500002FB03909DF80C0078B900BF00BF00215E
:1041600084F8241394F83703012804D100BF00BF5A
:104170000820207001E007202070C4E0D4F8D403A8
:1041800030B101212046D4F8D42390470820207074
:10419000B9E094F83D13204600F0FAF818B9092068
:1041A000207000BF00BFAEE094F83F0300F0200095
:1041B000A8B10121204600F0FFF803909DF80C0003
:1041C00020B900BF00BF0A2020700AE09DF80C0053
:1041D000032806D100BF00BF0A20207001E00A209A
:1041E000207090E0D4F8800308B900BF39E00020C7
:1041F000C4F87C03002511E004F55E7050F825003A
:10420000017994F84703814206D104F55E7050F8B5
:104210002500C4F87C0303E0681CC5B2002DEBD078
:1042200000BFD4F87C03C0B1D4F87C038168204679
:10423000884770B90620207000BF00BF032103E04B
:1042400060E02BE00EE032E02046D4F8D423904723
:1042500007E00D20207000BF03E00D20207000BF9C
:1042600000BF50E0D4F87C0398B1D4F87C03016916
:104270002046884703909DF80C0010B90B20207051
:104280000BE09DF80C00022807D10D20207000BF24
:1042900003E00D20207000BF00BF34E0D4F87C03A1
:1042A00020B1D4F87C034169204688472BE00021E7
:1042B00084F821132046FCF707FAD4F87C0338B1C0
:1042C000D4F87C03C168204688470020C4F87C03EA
:1042D000D4F8D40320B105212046D4F8D423904744
:1042E00000BF00BF94F82203012806D1002184F802
:1042F0002213204600F074F802E02046FFF7D3FCBA
:1043000001E000BF00BF00BF002004B070BD10B5C9
:104310000246002081B1D2F880334BB9D2F88043F5
:10432000631CC2F8803302F55E7343F8241006E084
:1043300000BF00BF022002E000BF00BF022010BD8E
:104340000246002092F83C338B4209DD82F82413A8
:1043500000BF00BF00BF00BF00BF00BF00BF02E042
:1043600000BF00BF0220704770B504460D46A0781C
:10437000012807D100212174052161746582002183
:10438000A182E182002211462046FEF7D2FB70BDD9
:1043900070B504460D46A078012807D1002121748C
:1043A0000921617465820021A182E1820022114607
:1043B0002046FEF7BEFB70BD70B504460D46A078E2
:1043C000012807D100212174032161746582002135
:1043D000A182E182002211462046FEF7AAFB70BDB1
:1043E00010B504462046FFF75EFC01212046FFF78A
:1043F0008FFB002010BD0000012906D0022909D042
:1044000004290BD005290DD100E00CE00322074B55
:104410001A7008E00222054B1A7004E00122034BD7
:104420001A7000E000BF00BF7047000000000020CD
:104430000FB470B504460A98012817D1A06B20F478
:104440008030A063E0681A490840E060E06820F42A
:104450004010E0601198012803D1E06840F480101A
:10446000E060204600F026F8054612E0E06840F0E3
:104470004000E060204600F01DF805460E9820B987
:10448000A06B40F48030A06303E0A06B20F4803088
:10449000A0630898012807D1A06840F00600A0603A
:1044A000A06840F02000A060284670BC5DF814FBB6
:1044B000BFFFBDFF08B501460020009000BF009877
:1044C000401C0090104A0098904201D9032008BD7A
:1044D000086900F000400028F1D000200090086931
:1044E00040F00100086100BF0098401C0090064A9F
:1044F0000098904201D90320E9E7086900F0010023
:104500000028F1D100BFE2E7400D030001468868B2
:1045100020F001008860002070470000F0B50346DD
:104520001C460A4601260D4800EAC64040F00047F6
:10453000114604F5A06000EB4110076104F5A0608E
:1045400000EB4110056825F0804545F0004504F575
:10455000A06000EB411005600020F0BD0000F81FD6
:1045600008B50246134600200090D3F8400400909E
:10457000009820F02E000090009800F4805030B990
:10458000012904D1009840F48050C3F840040098F9
:1045900000F48050B0F5805F05D121B9009820F477
:1045A0008050C3F84004002008BD0146886840F0F0
:1045B000010088600020704708B501460020009087
:1045C00000BF0098401C00900F4A0098904201D90B
:1045D000032008BD086900F000400028F1D0002049
:1045E00000901020086100BF0098401C0090064A0F
:1045F0000098904201D90320EBE7086900F0100011
:104600001028F1D00020E4E7400D030008B5024671
:104610000020009000BF0098401C0090104B0098B4
:10462000984201D9032008BD106900F0004000281D
:10463000F1D000200090202040EA8110106100BFDE
:104640000098401C0090064B0098984201D9032026
:10465000E9E7106900F020002028F1D00020E2E70F
:10466000400D030001460A464FF48160805880B235
:10467000704708B501460A4600200090D2F8400471
:1046800000900098C0F3414008BD0146486900F021
:1046900001007047F8B503460C461A462146002033
:1046A000009002F5A06000EB41100068C0F3814566
:1046B00002F5A06000EB41100068C60F986800F09A
:1046C0002000202802D10EB90020F8BD0DB1022D26
:1046D0004DD102F5A06000EB4110006840F080472A
:1046E00002F5A06000EB41100760986800F0200020
:1046F00000282ED1D86A00F47F0058BB02F5A060D4
:1047000000EB4110006820F0004702F5A06000EBCC
:104710004110076002F5A06000EB4110006840F016
:10472000004702F5A06000EB4110076000BF009851
:10473000401C00900098B0F57A7F00D909E002F59E
:10474000A06000EB4110006800F00040B0F1004FA5
:10475000EDD056E002F5A06000EB4110006840F09B
:10476000004702F5A06000EB4110076049E002F548
:10477000A06000EB4110006840F0804702F5A060A7
:1047800000EB411007604FF48260805800F47F0016
:1047900058BB02F5A06000EB4110006820F0004714
:1047A00002F5A06000EB4110076002F5A06000EB8D
:1047B0004110006840F0004702F5A06000EB411096
:1047C000076000BF0098401C00900098B0F57A7F09
:1047D00000D909E002F5A06000EB4110006800F08C
:1047E0000040B0F1004FEDD00BE002F5A06000EB0F
:1047F0004110006840F0004702F5A06000EB411056
:104800000760002061E72DE9FF4F81B006460C46A6
:104810001746DDF83C80002000903546411E05F526
:10482000A06000EB44108160B8F1000F09D0B8F12E
:10483000010F48D0B8F1020F04D0B8F1030F5AD1DC
:1048400029E000BF40F29D4105F5A06000EB441057
:10485000C16007F0800080280CD105F5A06000EB56
:104860004410C06840F4807105F5A06000EB44106E
:10487000C1600FE0F06B00F4807058B105F5A060E6
:1048800000EB4410C06840F0600105F5A06000EB4B
:104890004410C16032E040F29D6105F5A06000EB7C
:1048A0004410C16007F0800080280BD105F5A0609E
:1048B00000EB4410C06840F4807105F5A06000EB87
:1048C0004410C1601AE040F2252105F5A06000EB1C
:1048D0004410C16007F0800080280BD105F5A0606E
:1048E00000EB4410C06840F4C07105F5A06000EB17
:1048F0004410C16002E00120009000BF00BF05F538
:10490000A06000EB4410C06840F0020105F5A06013
:1049100000EB4410C1604FF48360415904F00F0272
:104920000120904008434FF483614851B06940F042
:104930000070B06107F08000802802D14FF4004978
:1049400001E04FF000093046FFF793FE83460E98D2
:10495000022805D1BBF1020F02D04FF4003A01E06A
:104960004FF0000A4FF0FE51049801EA80504FF4D6
:10497000F04101EAC72108434FF4402101EA884190
:1049800008431099C1F30A01084340EA090040EACC
:104990000A0005F5A06101EB44110860B8F1030FAE
:1049A00002D0B8F1010F0BD105F5A06000EB441067
:1049B000006840F0005105F5A06000EB4410016074
:1049C000009805B0BDE8F08F01460A4640F2144059
:1049D000805880B2704700002DE9FE4F07460C4614
:1049E00091463E4665784FF4807BF86B00F480700A
:1049F00010B3207900BBB9F1010F10D1E07910B1EB
:104A0000E07902280BD106F5A06000EB4510C068E4
:104A100020F0700106F5A06000EB4510C160B9F10F
:104A2000000F09D16079012806D161783846FFF777
:104A300075FD0020BDE8FE8F606978B1218960694D
:104A40000844401EB0FBF1F01FFA80F8D84507DD9E
:104A5000D846208900FB08F0206101E04FF00108F2
:104A6000E07820B1208900FB08F0206101E0606956
:104A700020612069C0F312004A4901EAC841084395
:104A8000A17A4FF0C04202EA4171084306F5A061E5
:104A900001EB45110861B9F1000F05D006F5A060E2
:104AA00000EB4510E16841614FF48160805900F0EE
:104AB000010080F00100019006F5A06000EB4510B8
:104AC000006820F0005106F5A06000EB4510016081
:104AD00006F5A06000EB45100168019841EA4071BD
:104AE00006F5A06000EB4510016006F5A06000EB44
:104AF000451000680290029820F080400290E07813
:104B000020B1029840F40040029003E0029820F4A3
:104B100000400290029840F00040029006F5A0602C
:104B200000EB451002990160B9F1000F01D000209F
:104B300080E7E07898BB606988B3E07930B10128FC
:104B400013D0022803D003281ED10DE000BF6069F6
:104B5000C01CC0F38F0AF86A80B2504503D2B8690E
:104B600040F02000B86110E000BF6069C01CC0F3D5
:104B70008F0A4FF48260805980B2504503D2B869E1
:104B800040F08060B86100E000BF00BF00200090EE
:104B9000A08A83B262783846E16800F08FF900207D
:104BA00048E700000000F81F0FB4F0B504460027E6
:104BB00025460020C5F8000EA06B40F40010A0634D
:104BC000A06B20F40020A063A06B20F48020A063E1
:104BD000E06B00F4807080B10898012806D1D5F808
:104BE000000440F00400C5F800040CE0D5F800040F
:104BF00020F00400C5F8000405E0D5F8000420F01A
:104C00000400C5F8000410212046FFF7FFFC00B1A6
:104C100001272046FFF7D0FC00B1012700260DE058
:104C20004FF0FF3105F5A06000EB461081600021D8
:104C300005F5A06000EB4610C160761C0798B042F5
:104C4000EED80020A061401E6061E06B00F480702F
:104C500040B14FF4007060620D48A0620D48C4F886
:104C6000000106E0802060620B48A0620B48C4F897
:104C70000001099818B9A06940F01000A061A0696E
:104C800007490843A0613846F0BC5DF814FB0000FA
:104C9000000200010003E00080006000E00040002E
:104CA000080020A310B502460B461146D1F80004B7
:104CB00020F00300C1F80004D1F8000403F003045D
:104CC0002043C1F80004012B05D14BF6803440F29B
:104CD0000440445006E0022B04D141F2707440F2CB
:104CE00004404450002010BD014648698A691040C4
:104CF00070472DE9F04104460D46274628464FEA05
:104D0000920C02F0030300210AE04FF4805858F897
:104D10000780C0F80080401C401C401C401C491CFF
:104D20006145F2D39BB100214FF4805858F80760D9
:104D300000BF4FEAC10826FA08F880F80080491C35
:104D4000401CA3F101081FFA88F3002BF1D1BDE844
:104D5000F08138B50446254600200090D5F840047F
:104D60000090009820F02E000090009840F4807091
:104D7000C5F840046420FBF7DBFC009820F4807049
:104D8000C5F840040A20FBF7D3FC002038BD70B5FD
:104D900004460E460025E06820F0C040E060012E89
:104DA00010D1E06840F00050E06000BF0120FBF748
:104DB000BFFC6D1C2046FFF768FC012815D0322D82
:104DC000F4D312E07EB9E06840F08040E06000BFBC
:104DD0000120FBF7ADFC6D1C2046FFF756FC20B10F
:104DE000322DF5D301E0012070BD322D01D101201B
:104DF000FAE70020F8E72DE9F84107464FF00008F0
:104E00003E46002000903846FFF780FB10213846D0
:104E1000FFF7FCFB08B14FF001083846FFF7CCFB69
:104E200008B14FF00108002410E006F5A06000EB87
:104E30004410056845F0804525F0004525F40045FF
:104E400006F5A06000EB44100560641C0F2CECD943
:104E5000002424E006F5A06000EB4410056845F04E
:104E6000804545F0004525F4004506F5A06000EBBF
:104E70004410056000BF0098401C00900098B0F5F9
:104E80007A7F00D909E006F5A06000EB44100068C5
:104E900000F00040B0F1004FEDD000BF641C0F2CBB
:104EA000D8D94FF0FF3140F2144081510846786163
:104EB0003846FFF77AFB4046BDE8F8812DE9F0431C
:104EC00004460D461E46DDF81CC0A0462946BCF12E
:104ED000000F12D1F01C870800230CE0D1F80090DD
:104EE00008F5805000EB0230C0F80090491C491CC6
:104EF000491C491C5B1CBB42F0D30020BDE8F08379
:104F000000BFFEE702480068C0F3022070470000BF
:104F10000CED00E010B5002804DB0A07130E054A6B
:104F2000135406E00A07140E034A00F00F031B1F78
:104F3000D45410BD00E400E018ED00E0FCF7BCF82C
:104F4000FDF74CFDFDF7C8FCFDF7EAFC01E0FDF7BD
:104F500005FDFCE74FF04070E1EE100A70470000DD
:104F60000000000000000102030406070809000019
:104F700000000102030400003C00002001000000CA
:104F80000000000000000000010000000000000020
:104F900001000000010000003C00002001000000B2
:104FA00001000000000000000100000000000000FF
:104FB00001000000010000003C0000200100000092
:104FC00002000000000000000100000000000000DE
:104FD00001000000010000003C0000200100000072
:104FE00003000000000000000100000000000000BD
:104FF00001000000010000003C0000200100000052
:10500000040000000000000001000000000000009B
:1050100001000000010000003C0000200100000031
:10502000050000000000000001000000000000007A
:1050300001000000010000003C0000200100000011
:105040000600000000000000010000000000000059
:1050500001000000010000003C00002001000000F1
:105060000700000000000000010000000000000038
:1050700001000000010000003E00002008000000C8
:1050800000060000000000006500000000000000B5
:105090006500000001000000006031323334353615
:1050A000373839302D3D000D097177657274797587
:1050B000696F705B5D5C006173646667686A6B6CE6
:1050C0003B27000A00007A786376626E6D2C2E2FE3
:1050D00000000000002000000000000000000000B0
:1050E00000000000000000000D00000000000000B3
:1050F000000000373431002F383532302A3936334A
:105100002E2D2B000A00000000000000000000000F
:1051100000000000000000000000007E2140232469
:10512000255E262A28295F2B00000051574552543E
:105130005955494F507B7D7C004153444647484A6E
:105140004B4C3A22000A00005A584356424E4D3CFE
:105150003E3F0000000000000000000000000000D2
:10516000000000000000000000000000000000003F
:10517000000000000000000000000000000000002F
:10518000000000000000000000000000000000001F
:10519000000000000000000000000000000000000F
:1051A0001F32302113222324182526273433191ABD
:1051B000111420151731122F162E020304050607AD
:1051C00008090A0B2B6E0F103D0C0D1B1C1D2A2805
:1051D00029013536371E7071727374757677787958
:1051E0007A7B7C7D7E4B50554C5156594F54535AC7
:1051F0005F64696A6C5D62675C61665B6065636879
:105200002D810000000000000000000000000000F0
:10521000000000000000000000000000000000008E
:10522000006B0038000000000000000000000000DB
:10523000000000000000000000000000000000006E
:10524000000000000000000000000000000000005E
:10525000000000000000000000000000000000004E
:10526000000000000000000000000000000000003E
:105270000000000000000000000000003A2C3C7F0D
:1052800040393E8048494400A852000800000020F0
:105290005C000000D0010008045300085C000020FE
:1052A0004C0E0000EC0100080000000000000000AF
:1052B00010000000010000000024F40084520008E7
:1052C000030000002D300008D52F00089F2D000896
:1052D0001D3400080B35000800000000000000002D
:1052E00000000000000000000000000000000000BE
:1052F00000000000000000000000000000000000AE
:0453000000000000A9
:040000050800019559
:00000001FF
